:100000000C9462000C948A000C948A000C94B50342
:100010000C94AB030C94A1030C948A000C944A0238
:100020000C948A000C948A000C948A000C948A0028
:100030000C948A000C948A000C948A000C948A0018
:100040000C9400020C948A000C948A000C948A0090
:100050000C948A000C948A000C948A000C948A00F8
:100060000C9473020C948A00000000080002010046
:100070000003040700000000000000000000000072
:10008000240027002A000000000023002600290089
:1000900000000000250028002B00040404040404D0
:1000A0000404020202020202030303030303010227
:1000B00004081020408001020408102001020408F6
:1000C0001020BF0311241FBECFEFD8E0DEBFCDBF8D
:1000D00011E0A0E0B1E0E4E7FCE002C005900D9281
:1000E000A031B107D9F721E0A0E1B1E001C01D9234
:1000F000AF3DB207E1F710E0C2E6D0E004C02197BF
:10010000FE010E949105C136D107C9F70E94100473
:100110000C9438060C94000090E0FC01E859FF4F65
:100120002491FC01E255FF4F3491FC01E656FF4F4C
:10013000E491EE23B1F1222339F1233091F038F428
:100140002130A9F0223001F584B58F7D12C027300F
:1001500091F02830A1F02430B9F4809180008F7D97
:1001600003C0809180008F77809380000DC084B59C
:100170008F7784BD09C08091B0008F7703C08091D4
:10018000B0008F7D8093B000F0E0EE0FFF1FE057CE
:10019000FF4FA591B4918FB7F894EC913E2B3C930F
:1001A0008FBF08953FB7F8948091BD019091BE0133
:1001B000A091BF01B091C00126B5A89B05C02F3FFB
:1001C00019F00196A11DB11D3FBFBA2FA92F982F7D
:1001D0008827820F911DA11DB11DBC01CD0142E0F8
:1001E000660F771F881F991F4A95D1F70895E091F0
:1001F000AE01F091AF01309729F01092A701109253
:10020000A60109940895CF93DF93AC01E0919F017B
:10021000F091A0013097F1F09091A9018091A8018F
:100220009817C0F090E0292F30E02617370754F4D4
:10023000D901A158BE4FEA01C20FD31F88818C9308
:100240009F5FF1CF1092A9016093A801CB01DF91CC
:10025000CF910994DF91CF910895CF92DF92EF92E1
:10026000FF920F931F93CF93DF936C017A018B0161
:10027000C0E0D0E0CE15DF0589F0D8016D918D0189
:10028000D601ED91FC910190F081E02DC601099518
:10029000892B11F47E0102C02196ECCFC701DF91BA
:1002A000CF911F910F91FF90EF90DF90CF90089525
:1002B0000895E091A9018091A801E81730F4F0E0D9
:1002C000E158FE4F808190E008958FEF9FEF0895F1
:1002D0009091A9018091A801981750F4E92FF0E0BE
:1002E000E158FE4F208130E09F5F9093A90102C04A
:1002F0002FEF3FEFC90108958091A80190E0209170
:10030000A901821B9109089585ED8093BC0080911D
:10031000BC0084FDFCCF1092A501089540913801E6
:10032000262F30E0240F311D21323105DCF42091DD
:10033000A5012430C9F4FC0180E090E0861758F450
:10034000309138012191DC01A85EBE4FA30FB11D91
:100350002C930196F3CF80913801680F6093380198
:1003600080E0089581E0089582E00895CF93DF93BF
:1003700000D0CDB7DEB7CB01642F49835A830E94EA
:100380008E014981842F5A81952F0F900F90DF9114
:10039000CF9108958091B0019091B101A091B201E7
:1003A000B091B301E4E1F1E090838091B0019091CC
:1003B000B101A091B201B091B301818342E050E05C
:1003C000BF0181EC91E00C94B601CF93DF931F92B3
:1003D000CDB7DEB7698361E0CE0101960E948E0140
:1003E00081E090E00F90DF91CF91089520E0019798
:1003F0002FEF8F3F9207D9F7089508950E94330693
:100400001F920F920FB60F9211242F933F938F9349
:100410009F93AF93BF938091B9019091BA01A0913E
:10042000BB01B091BC013091B80123E0230F2D37FF
:1004300020F40196A11DB11D05C026E8230F0296E8
:10044000A11DB11D2093B8018093B9019093BA0109
:10045000A093BB01B093BC018091BD019091BE01FE
:10046000A091BF01B091C0010196A11DB11D809363
:10047000BD019093BE01A093BF01B093C001BF9195
:10048000AF919F918F913F912F910F900FBE0F9041
:100490001F9018951F920F920FB60F9211242F9351
:1004A0003F934F935F936F937F938F939F93AF93FC
:1004B000BF93EF93FF93E091A101F091A2013097D8
:1004C00009F00995FF91EF91BF91AF919F918F91A5
:1004D0007F916F915F914F913F912F910F900FBE40
:1004E0000F901F9018951F920F920FB60F92112424
:1004F0002F933F934F935F936F937F938F939F932C
:10050000AF93BF93EF93FF938091B900887F8036BC
:1005100009F49CC068F5883209F45BC090F480311E
:1005200009F454C038F4882309F4F6C0883009F47B
:100530004DC0F6C0883109F44CC0803209F45DC06A
:10054000EFC0803409F468C048F4803309F455C022
:10055000883309F0E5C080935B01D8C0803509F489
:100560004FC0883509F45DC0883409F0D9C0D6C0C1
:10057000883909F4C7C0A8F4883709F467C038F48B
:10058000883609F463C0803709F460C0C9C0883870
:1005900009F4B8C0803909F45FC0803809F0C0C0E0
:1005A0005BC0803B09F486C038F4803A09F466C029
:1005B000883A09F47FC0B4C0803C09F4A7C0883CE5
:1005C00009F4A4C0883B09F48AC0AAC080917E01C6
:1005D00010C090917D0180917C01981770F5E09199
:1005E0007D0181E08E0F80937D01F0E0E45AFE4FA3
:1005F00080818093BB0085EC86C080935B018EC0B8
:10060000E0917D0181E08E0F80937D018091BB00A0
:10061000F0E0E45AFE4F808390917D0180917C014F
:100620006EC0E0917D0181E08E0F80937D0180910D
:10063000BB00F0E0E45AFE4F80838091A401811159
:100640006DC081E08093A30184EA61C083E0809360
:10065000A50110925A01CFCF80915A01803208F043
:1006600051C0E0915A0181E08E0F80935A01809130
:10067000BB00F0E0E65CFE4F8083BDCF85EC80934D
:10068000BC001092A50180915A01803230F4E091B3
:100690005A01F0E0E65CFE4F108260915A0170E072
:1006A000E091AA01F091AB018AE391E009951092E3
:1006B0005A0136C084E08093A5011092390110924E
:1006C0003801E091AC01F091AD01099580913801BC
:1006D000811105C081E08093380110921801E091EA
:1006E000390181E08E0F80933901F0E0E85EFE4F22
:1006F00080818093BB0090913901809138019817D7
:1007000008F479CF85E88093BC000AC085EC80931B
:10071000BC001092A50104C010925B010E948401EC
:10072000FF91EF91BF91AF919F918F917F916F91C9
:100730005F914F913F912F910F900FBE0F901F909F
:1007400018951F920F920FB60F9211240F900FBEA3
:100750000F901F9018951F920F920FB60F921124B1
:100760000F900FBE0F901F9018951F920F920FB60B
:100770000F9211240F900FBE0F901F901895E1EC6F
:10078000F1E01382128288EE93E0A0E0B0E084836F
:100790009583A683B78384E091E091838083EAEB1D
:1007A000F0E0E491ADECB1E01496EC931497E9EB32
:1007B000F0E0E4911596EC93159786EA90E0FC0141
:1007C0002491E22FF0E0EE0FFF1FE057FF4F25913D
:1007D000349117963C932E931697E5EAF0E0E49156
:1007E000F0E0EE0FFF1FEA57FF4F259134911B9663
:1007F0003C932E931A97FC018491E82FF0E0EE0FC2
:10080000FF1FE458FF4F8591949119969C938E9306
:10081000189784EA9CE21D969C938E931C970895EA
:10082000789484B5826084BD84B5816084BD85B5CB
:10083000826085BD85B5816085BD80916E008160D7
:1008400080936E001092810080918100826080937D
:10085000810080918100816080938100809180007F
:100860008160809380008091B10084608093B100AA
:100870008091B00081608093B00080917A008460A4
:1008800080937A0080917A00826080937A008091D0
:100890007A00816080937A0080917A0080688093EA
:1008A0007A001092C10084EC8093BA0087EF90E048
:1008B0009093AD018093AC0183E091E09093AB0104
:1008C0008093AA011092A9011092A8011092A70189
:1008D0001092A6011092A50181E08093A4011092CC
:1008E000A30182E10E948C0083E10E948C00809130
:1008F000B9008E7F8093B9008091B9008D7F80937D
:10090000B90088E48093B80085E48093BC008AEC49
:1009100091E09093AF018093AE01CBE0D0E003E291
:1009200010E089E3E82EF12C90E0C92E90E0D92E5A
:10093000E091D501F091D60190818091D101892B70
:100940008083E091D301F091D40190818091D10115
:10095000809589238083CE010197F1F7E091D3013F
:10096000F091D40190818091D101892B8083C801BD
:100970000197F1F7E091D301F091D401908180913A
:10098000D101809589238083E091D501F091D60132
:1009900090818091D1018095892380830E94D2002B
:1009A000DC01CB01805B994BAF4FBF4F8093DB01E4
:1009B0009093DC01A093DD01B093DE01E091D701BB
:1009C000F091D80190818091D2018923F9F00E94A1
:1009D000D2008090DB019090DC01A090DD01B0900E
:1009E000DE0186169706A806B90640F70FC00E94DA
:1009F000D2008090DB019090DC01A090DD01B090EE
:100A0000DE0186169706A806B906A8F1E091D7017F
:100A1000F091D80190818091D201892341F30E9405
:100A2000D2002091D9013091DA01DC01CB01820F93
:100A3000931FA11DB11D8093DB019093DC01A09356
:100A4000DD01B093DE01E091D701F091D8019081F2
:100A50008091D201892391F00E94D2008090DB0125
:100A60009090DC01A090DD01B090DE018616970623
:100A7000A806B90640F780E090E013C00E94D200BB
:100A80002091D9013091DA01A901455051092091F5
:100A9000DB013091DC01FA01E21BF30BCF01860F81
:100AA000971FB7010E947D0580E090E00E94CD0570
:100AB0006093B4017093B5018093B6019093B70130
:100AC0006091B4017091B5018091B6019091B70128
:100AD0000E949705CB01770FAA0BBB0B8093B00147
:100AE0009093B101A093B201B093B301C114D104AA
:100AF00009F41ECF0E9400001BCFAA1BBB1B51E1B3
:100B000007C0AA1FBB1FA617B70710F0A61BB70B7D
:100B1000881F991F5A95A9F780959095BC01CD0122
:100B20000895EE0FFF1F0590F491E02D09940E94A7
:100B30009E056894B1110C942D0608950E9412062A
:100B400088F09F5798F0B92F9927B751B0F0E1F08E
:100B5000660F771F881F991F1AF0BA95C9F714C03E
:100B6000B13091F00E942C06B1E008950C942C064F
:100B7000672F782F8827B85F39F0B93FCCF3869577
:100B800077956795B395D9F73EF4909580957095D4
:100B900061957F4F8F4F9F4F0895E89409C097FB51
:100BA0003EF490958095709561957F4F8F4F9F4F44
:100BB0009923A9F0F92F96E9BB279395F695879588
:100BC00077956795B795F111F8CFFAF4BB0F11F44B
:100BD00060FF1BC06F5F7F4F8F4F9F4F16C08823F2
:100BE00011F096E911C0772321F09EE8872F762F28
:100BF00005C0662371F096E8862F70E060E02AF069
:100C00009A95660F771F881FDAF7880F9695879554
:100C100097F9089557FD9058440F551F59F05F3FBD
:100C200071F04795880F97FB991F61F09F3F79F00E
:100C300087950895121613061406551FF2CF469590
:100C4000F1DF08C0161617061806991FF1CF869512
:100C50007105610508940895E894BB2766277727F6
:100C6000CB0197F9089581E090E0F8940C94380650
:040C7000F894FFCF26
:100C740000000000E501B6017C016801590158013A
:00000001FF
