:100000000C94B1000C94D9000C94D9000C94A10666
:100010000C947D060C9459060C94D9000C94D900CC
:100020000C94D9000C94D9000C94D9000C94D900EC
:100030000C94D9000C94D9000C94D9000C94D900DC
:100040000C94E1040C94D9000C94D9000C94D900C0
:100050000C94D9000C94D9000C94D9000C94D900BC
:100060000C942B050C94D90000000008000201003C
:100070000003040700000000000000000000000072
:10008000250028002B0000000000240027002A0083
:1000900000000000230026002900040404040404D6
:1000A0000404020202020202030303030303010227
:1000B00004081020408001020408102001020408F6
:1000C000102000C201000100110011000C0000E12D
:1000D00000000A00250025002100009600001900FC
:1000E000390039003600127A00001F004600460031
:1000F00044008070000022004D004D004A00004B7B
:1001000000003600750075007200403800004A009B
:100110009C009C009900802500007200EC00EC001F
:10012000E900C0120000E900DA01DA01D701600934
:100130000000D701B603B603B303B0040000B30355
:100140006E076E076B07580200006E07DC0EDC0EB0
:10015000D80E2C010000DC0EC11DC11DBE1D0A07FA
:10016000F00911241FBECFEFD8E0DEBFCDBF11E0F4
:10017000A0E0B1E0EAEBFAE102C005900D92A632F0
:10018000B107D9F722E0A6E2B1E001C01D92A03389
:10019000B207E1F710E0C0EBD0E004C02197FE0108
:1001A0000E94260ACF3AD107C9F70E9430080C9462
:1001B000500D0C94000090E0FC01E859FF4F249191
:1001C000FC01E255FF4F3491FC01E656FF4FE491EC
:1001D000EE23B1F1222339F1233091F038F42130AC
:1001E000A9F0223001F584B58F7D12C0273091F03F
:1001F0002830A1F02430B9F4809180008F7D03C0B5
:10020000809180008F77809380000DC084B58F77B8
:1002100084BD09C08091B0008F7703C08091B00089
:100220008F7D8093B000F0E0EE0FFF1FE458FF4F8A
:10023000A591B4918FB7F894EC913E2B3C938FBF6E
:1002400008953F924F925F926F927F928F929F920A
:10025000AF92BF92CF92DF92EF92FF920F931F93D4
:10026000CF93DF93382EC0912A02D0912B02888041
:100270009980EA80FB80C0902602D12CAA24A39406
:10028000B12C11E001E0AC14BD0454F54C805D804C
:100290006E807F80288139814A815B812496B201FA
:1002A000C3010E942C0A811102C01F5F01C011E02E
:1002B0009401A701B201C3010E942C0A811102C05E
:1002C0000F5F0AC0311004C0011730F4012F02C0C3
:1002D000101302C0420173018FEFA81AB80AD3CFDE
:1002E000B401C701DF91CF911F910F91FF90EF9063
:1002F000DF90CF90BF90AF909F908F907F906F9046
:100300005F904F903F9008958E3008F08E50877028
:10031000806480937C0080917A00806480937A006E
:1003200080917A0086FDFCCF809178002091790041
:1003300090E0922B08953FB7F89480910B02909132
:100340000C02A0910D02B0910E0226B5A89B05C02B
:100350002F3F19F00196A11DB11D3FBFBA2FA92F44
:10036000982F8827820F911DA11DB11DBC01CD01C1
:1003700042E0660F771F881F991F4A95D1F70895AD
:10038000E091FC01F091FD01309729F01092F50108
:100390001092F40109940895CF93DF93AC01E0919A
:1003A000EF01F091F0013097F1F09091F701809119
:1003B000F6019817C0F090E0292F30E02617370794
:1003C00054F4D901A153BE4FEA01C20FD31F888153
:1003D0008C939F5FF1CF1092F7016093F601CB01F0
:1003E000DF91CF910994DF91CF910895CF92DF9261
:1003F000EF92FF920F931F93CF93DF936C017A01DB
:100400008B01C0E0D0E0CE15DF0589F0D8016D91F9
:100410008D01D601ED91FC910190F081E02DC60196
:100420000995892B11F47E0102C02196ECCFC701FA
:10043000DF91CF911F910F91FF90EF90DF90CF90C0
:1004400008950895E091F7018091F601E81730F4DE
:10045000F0E0E153FE4F808190E008958FEF9FEF31
:1004600008959091F7018091F601981750F4E92FC3
:10047000F0E0E153FE4F208130E09F5F9093F70161
:1004800002C02FEF3FEFC90108958091F60190E07F
:100490002091F701821B9109089585ED8093BC009E
:1004A0008091BC0084FDFCCF1092F301089540912F
:1004B0008801262F30E0240F311D21323105DCF474
:1004C0002091F3012430C9F4FC0180E090E086170C
:1004D00058F4309188012191DC01A859BE4FA30F37
:1004E000B11D2C930196F3CF80918801680F609322
:1004F000880180E0089581E0089582E00895CF9317
:10050000DF9300D0CDB7DEB7CB01642F49835A8388
:100510000E9457024981842F5A81952F0F900F9086
:10052000DF91CF9108958091FE019091FF01A091FC
:100530000002B0910102E6E2F1E090838091FE01B9
:100540009091FF01A0910002B0910102818342E0ED
:1005500050E0BF018FE092E00C947F02CF93DF93D5
:100560001F92CDB7DEB7698361E0CE0101960E948C
:10057000570281E090E00F90DF91CF910895209194
:100580001D0230911E022817390781F490911B0239
:1005900080911C02981751F0E0911B02F0E0E85D99
:1005A000FE4F8081082E000C990B08958FEF9FEF6E
:1005B000089520911D0230911E022817390739F441
:1005C0008FB7F89410921C0210921B028FBF0895EF
:1005D00021E030E0FC013383228380E090E0089545
:1005E00020911D0230911E022817390771F4809165
:1005F0001C0220911B0290E0805C9F4F821B91099E
:1006000060E470E00E94FE09089580E090E00895A3
:1006100020911D0230911E0228173907B9F49091DC
:100620001B0280911C02981789F0E0911B02F0E0F8
:10063000E85DFE4F808120911B0230E02F5F3F4F2D
:100640002F73332720931B0290E008958FEF9FEFC5
:10065000089520E001972FEF8F3F9207D9F7089573
:10066000EF92FF920F931F93CF93DF93C0911D02E0
:10067000D0911E02209709F450C0988DEE85FF8519
:100680008D8591FF04C09081892329F446C0908113
:10069000892309F042C0888999890E94290388E04A
:1006A000E82EF12C10E001E08A899B890E94290341
:1006B000EE85FF8590818D85892311F0102B03C075
:1006C000802F80951823000F81E0E81AF10861F768
:1006D0008C899D890E942903888D81FD10958091C8
:1006E0001C0220911B0290E001968F73992730E045
:1006F0008217930779F0E0911C02F0E0E85DFE4F6D
:10070000108380911C0290E001968F73992780934B
:100710001C0203C0888D8160888FDF91CF911F916B
:100720000F91FF90EF900895AF92BF92CF92DF921A
:10073000EF92FF920F931F93CF93DF93CDB7DEB766
:10074000ADB6BEB6082F10E08DB79EB7801B910BDB
:100750000FB6F8949EBF0FBE8DBFADB7BEB7119652
:100760007D018091280290912902DC01ED91FC919C
:100770000284F385E02D0995809128029091290249
:10078000DC01ED91FC910480F581E02D0995892B28
:1007900099F38091280290912902DC01ED91FC915E
:1007A0000680F781E02D09958235910529F76701CB
:1007B000C6018E199F0980179107E4F480912802E1
:1007C00090912902DC01ED91FC910480F581E02DEE
:1007D0000995892B99F38091280290912902DC01D7
:1007E000ED91FC910680F781E02D0995F60181934A
:1007F0006F01DECFC7010E942A0D0FB6F894BEBE6E
:100800000FBEADBEDF91CF911F910F91FF90EF9082
:10081000DF90CF90BF90AF9008950F931F9390E01B
:10082000FC01E255FF4F6491FC01E656FF4FE49155
:10083000F0E0EE0FFF1FE057FF4F8591949100E429
:1008400012E42FE030E0462F0E94C50661157105C5
:100850008105910549F0DC01CB010196A11DB11D77
:10086000BC01CD019F7003C060E070E0CB011F911F
:100870000F910895209120023091210221303105FD
:1008800089F12230310509F46DC0232B09F096C09F
:1008900020912202309123022130310599F022303B
:1008A0003105D9F0232B09F089C080911F020E94E5
:1008B0000D040E94D90A20E030E043E153E40E9495
:1008C000310A2DC080911F020E940D040E94D90A96
:1008D00020E030E048E652E46FC080911F020E94A1
:1008E0000D0464C020912202309123022130310591
:1008F000E9F02230310529F1232B09F05FC0809106
:100900001F020E948401BC01990F880B990B0E9461
:10091000DB0A20E030E040E05FE30E948B0B2CE537
:100920003FE842E250E40E948B0B089580911F0241
:100930000E948401BC01990F880B990B0E94DB0A6D
:10094000089580911F020E948401BC01990F880BB9
:10095000990B0E94DB0A20E030E040EA50E40E945C
:100960008B0B26C0209122023091230221303105C9
:1009700071F022303105A1F0232B01F583E00E94B4
:100980009403BC0180E090E00E94D90AC8CF83E0C4
:100990000E949403BC0180E090E00E94D90A08956F
:1009A00084E00E949403BC0180E090E00E94D90A98
:1009B00020E030E040E251E40E94310A08950E94B4
:1009C000250D1F920F920FB60F9211242F933F9374
:1009D0008F939F93AF93BF938091070290910802EA
:1009E000A0910902B0910A023091060223E0230F80
:1009F0002D3720F40196A11DB11D05C026E8230F57
:100A00000296A11DB11D20930602809307029093C8
:100A10000802A0930902B0930A0280910B02909100
:100A20000C02A0910D02B0910E020196A11DB11D04
:100A300080930B0290930C02A0930D02B0930E02D0
:100A4000BF91AF919F918F913F912F910F900FBECA
:100A50000F901F9018951F920F920FB60F921124AE
:100A60002F933F934F935F936F937F938F939F93B6
:100A7000AF93BF93EF93FF938091B900887F803647
:100A800009F49CC068F5883209F45BC090F48031A9
:100A900009F454C038F4882309F4F6C0883009F406
:100AA0004DC0F6C0883109F44CC0803209F45DC0F5
:100AB000EFC0803409F468C048F4803309F455C0AD
:100AC000883309F0E5C08093AB01D8C0803509F4C4
:100AD0004FC0883509F45DC0883409F0D9C0D6C04C
:100AE000883909F4C7C0A8F4883709F467C038F416
:100AF000883609F463C0803709F460C0C9C08838FB
:100B000009F4B8C0803909F45FC0803809F0C0C06A
:100B10005BC0803B09F486C038F4803A09F466C0B3
:100B2000883A09F47FC0B4C0803C09F4A7C0883C6F
:100B300009F4A4C0883B09F48AC0AAC08091CE0100
:100B400010C09091CD018091CC01981770F5E09183
:100B5000CD0181E08E0F8093CD01F0E0E455FE4F92
:100B600080818093BB0085EC86C08093AB018EC0F2
:100B7000E091CD0181E08E0F8093CD018091BB008B
:100B8000F0E0E455FE4F80839091CD018091CC013F
:100B90006EC0E091CD0181E08E0F8093CD018091F8
:100BA000BB00F0E0E455FE4F80838091F20181119B
:100BB0006DC081E08093F10184EA61C083E080939D
:100BC000F3011092AA01CFCF8091AA01803208F0E0
:100BD00051C0E091AA0181E08E0F8093AA0180911B
:100BE000BB00F0E0E657FE4F8083BDCF85EC8093DD
:100BF000BC001092F3018091AA01803230F4E091A0
:100C0000AA01F0E0E657FE4F10826091AA0170E061
:100C1000E091F801F091F9018AE891E009951092CC
:100C2000AA0136C084E08093F301109289011092EA
:100C30008801E091FA01F091FB010995809188010A
:100C4000811105C081E08093880110926801E091D4
:100C5000890181E08E0F80938901F0E0E859FE4F11
:100C600080818093BB0090918901809188019817C1
:100C700008F479CF85E88093BC000AC085EC8093A6
:100C8000BC001092F30104C01092AB010E944D020F
:100C9000FF91EF91BF91AF919F918F917F916F9154
:100CA0005F914F913F912F910F900FBE0F901F902A
:100CB00018951F920F920FB60F9211242F933F9306
:100CC0004F935F936F937F938F939F93AF93BF9354
:100CD000EF93FF930E943003FF91EF91BF91AF918B
:100CE0009F918F917F916F915F914F913F912F9144
:100CF0000F900FBE0F901F9018951F920F920FB676
:100D00000F9211242F933F934F935F936F937F9391
:100D10008F939F93AF93BF93EF93FF930E94300302
:100D2000FF91EF91BF91AF919F918F917F916F91C3
:100D30005F914F913F912F910F900FBE0F901F9099
:100D400018951F920F920FB60F9211242F933F9375
:100D50004F935F936F937F938F939F93AF93BF93C3
:100D6000EF93FF930E943003FF91EF91BF91AF91FA
:100D70009F918F917F916F915F914F913F912F91B3
:100D80000F900FBE0F901F901895CF92DF92EF92A9
:100D9000FF920F931F93E82FF92F05C001501109FF
:100DA0002109310961F1908196239417B9F305C0A7
:100DB000015011092109310911F1908196239413F1
:100DC000F7CFC12CD12CE12CF12C0AC08FEFC81A1F
:100DD000D80AE80AF80A0C151D052E053F0579F01A
:100DE00080818623841791F36C2D7D2D8E2D9F2D70
:100DF0001F910F91FF90EF90DF90CF90089560E0EA
:100E000070E080E090E01F910F91FF90EF90DF90F5
:100E1000CF900895CF92DF92EF92FF92CF93DF931E
:100E2000109212021092110248EEC42E43E0D42E0A
:100E3000E12CF12CC0921302D0921402E092150220
:100E4000F09216028AE091E09093100280930F02D4
:100E500086E080931F0282E090E0909321028093CD
:100E60002002909323028093220284E090E09093EA
:100E700025028093240288E08093260289E190E095
:100E80000E94F80BEC011B821A82CC82DD82EE827A
:100E9000FF828AE191E099838883198A188A1B8AE4
:100EA0001A8A1D8A1C8A1F8A1E8A888D8E7F8260FC
:100EB000888FE4EBF0E02491E0EAF0E0849188236D
:100EC000C9F090E0880F991FFC01EA57FF4F459148
:100ED0005491FC01E458FF4FA591B4919FB7F89449
:100EE000FA0180812095822380838C91E22FE82370
:100EF000EC939FBF888D81FD03C086E00E94DB00DC
:100F000086E08C87E4EBF0E0E491ED87E0EAF0E046
:100F1000E491F0E0EE0FFF1FE057FF4F85919491B1
:100F20009F878E87D0932902C09328021F8A1E8A2A
:100F30001D8A1C8A1B8A1A8A82EC90E020E030E02D
:100F4000FC01459155916591749140385542610578
:100F5000710519F54CE0429FC001439F900D11248B
:100F6000FC01EA53FF4F25913491398B288BFC010A
:100F7000E853FF4F259134913B8B2A8BFC01E653BC
:100F8000FF4F259134913D8B2C8BFC01E453FF4F97
:100F9000859194919F8B8E8B09C02F5F3F4F0C964C
:100FA0002D30310509F0CCCF198A188A8C899D899A
:100FB000892B71F080916800846080936800809133
:100FC0006D00806480936D008E899F890E94290343
:100FD00080911D0290911E028C179D0771F0888DE3
:100FE0008E7F888F8FB7F89410921C0210921B028C
:100FF000D0931E02C0931D028FBF80912402909156
:10100000250281309105B4F0853091051CF00597DB
:1010100059F010C080912602811102C085E00BC0FA
:1010200080FF0BC08F5F07C080912602811105C031
:1010300082E001C081E0809326028091260224E0B4
:10104000829FC00111240E94F80B90932B02809381
:101050002A02DF91CF91FF90EF90DF90CF9008951B
:10106000789484B5826084BD84B5816084BD85B583
:10107000826085BD85B5816085BD80916E0081608F
:1010800080936E0010928100809181008260809335
:101090008100809181008160809381008091800037
:1010A0008160809380008091B10084608093B10062
:1010B0008091B00081608093B00080917A0084605C
:1010C00080937A0080917A00826080937A00809188
:1010D0007A00816080937A0080917A0080688093A2
:1010E0007A001092C10084EC8093BA0080EC91E009
:1010F0009093FB018093FA018CEC91E09093F901BD
:101100008093F8011092F7011092F6011092F50108
:101110001092F4011092F30181E08093F201109299
:10112000F10182E10E94DB0083E10E94DB008091FB
:10113000B9008E7F8093B9008091B9008D7F809334
:10114000B90088E48093B80085E48093BC0083E90B
:1011500092E09093FD018093FC01E12CF12C00E0E2
:1011600010E08091260290E0C0912A02D0912B02DB
:10117000081719070CF047C0CE0DDF1D0E943A0476
:10118000688379838A839B838091200290912102D6
:10119000019799F58091260290E0019708171907A9
:1011A00061F180902702912CA12CB12C0E949B010F
:1011B0002B013C0181149104A104B104F1F00E94BF
:1011C0009B01DC01CB0184199509A609B709883E6A
:1011D0009340A105B10570F321E0821A9108A1089E
:1011E000B10888EE480E83E0581E611C711C811402
:1011F0009104A104B10419F7DDCF0F5F1F4FF4E094
:10120000EF0EF11CAECF6E0124E0C20ED11C2224E1
:101210002394312C10912602812F90E02816390654
:1012200094F5F60180809180A280B3808101015005
:1012300011097601F70172906290529042907F01FD
:10124000A3019201C501B4010E942C0A87FF08C0C6
:10125000F70144825582668277820150110950F766
:10126000F8013196EE0FFF1FEE0FFF1FEC0FFD1F71
:1012700080829182A282B382FFEF2F1A3F0A24E07C
:10128000C20ED11CC7CF80912402909125028330D9
:10129000910509F45FC04CF48130910509F453C005
:1012A000029709F073C081E056C08430910509F4BB
:1012B00057C0059709F06AC0E0912A02F0912B020D
:1012C000C080D180E280F3808091260294E0899FE3
:1012D000E00DF11D11243497208131814281538129
:1012E000C701B6010E942C0A882309F453C00E944A
:1012F0003A04A0912A02B0912B0220E030E0FD01D7
:101300004091260250E0EA0121972C173D076CF42A
:101310001496CD90DD90ED90FC901797CD92DD92D4
:10132000ED92FD922F5F3F4FEBCF9A012150304C51
:10133000220F331F220F331FE20FF31F60837183CD
:1013400082839383B9CF1695E4E01E9FC00DD11D13
:1013500011241CC080E00E9421016B017C011AC095
:1013600081E00E9421016B017C0180E00E9421014B
:101370009B01AC01C701B6010E942C0A882351F0E1
:101380001695F4E01F9FC00DD11D1124C880D9808F
:10139000EA80FB80C0920202D0920302E092040233
:1013A000F0920502609102027091030280910402A2
:1013B000909105020E94A30ACB01770FAA0BBB0BE9
:1013C0008093FE019093FF01A0930002B09301026D
:1013D00080E090E0892B09F4C0CE0E940000BDCED1
:1013E00080912A0290912B02009711F00E948D0C9F
:1013F00080912802909129020C948D0C97FB072E66
:1014000016F4009407D077FD09D00E94120A07FC59
:1014100005D03EF4909581959F4F08957095619504
:101420007F4F0895AA1BBB1B51E107C0AA1FBB1F1A
:10143000A617B70710F0A61BB70B881F991F5A9560
:10144000A9F780959095BC01CD010895EE0FFF1F7F
:101450000590F491E02D09940E94160B08F481E0A8
:1014600008950E94450A0C94510B0E944A0B58F0B3
:101470000E94430B40F029F45F3F29F00C943A0B93
:1014800051110C94850B0C94400B0E94620B68F375
:101490009923B1F3552391F3951B550BBB27AA272D
:1014A00062177307840738F09F5F5F4F220F331F67
:1014B000441FAA1FA9F335D00E2E3AF0E0E832D02F
:1014C00091505040E695001CCAF72BD0FE2F29D032
:1014D000660F771F881FBB1F261737074807AB0704
:1014E000B0E809F0BB0B802DBF01FF2793585F4F79
:1014F0003AF09E3F510578F00C943A0B0C94850B12
:101500005F3FE4F3983ED4F3869577956795B7955A
:10151000F7959F5FC9F7880F911D9695879597F965
:101520000895E1E0660F771F881FBB1F62177307DE
:101530008407BA0720F0621B730B840BBA0BEE1FF3
:1015400088F7E09508950E94AA0A6894B1110C9456
:10155000850B08950E946A0B88F09F5798F0B92F69
:101560009927B751B0F0E1F0660F771F881F991FD8
:101570001AF0BA95C9F714C0B13091F00E94840BEB
:10158000B1E008950C94840B672F782F8827B85FFB
:1015900039F0B93FCCF3869577956795B395D9F730
:1015A0003EF490958095709561957F4F8F4F9F4F3A
:1015B0000895E89409C097FB3EF490958095709546
:1015C00061957F4F8F4F9F4F9923A9F0F92F96E98F
:1015D000BB279395F695879577956795B795F11104
:1015E000F8CFFAF4BB0F11F460FF1BC06F5F7F4FA1
:1015F0008F4F9F4F16C0882311F096E911C07723B3
:1016000021F09EE8872F762F05C0662371F096E8BB
:10161000862F70E060E02AF09A95660F771F881F8A
:10162000DAF7880F9695879597F90895990F00082E
:10163000550FAA0BE0E8FEEF16161706E807F907A4
:10164000C0F012161306E407F50798F0621B730B3F
:10165000840B950B39F40A2661F0232B242B252BC0
:1016600021F408950A2609F4A140A6958FEF811D63
:10167000811D089597F99F6780E870E060E0089504
:101680009FEF80EC089500240A941616170618069A
:101690000906089500240A94121613061406050676
:1016A0000895092E0394000C11F4882352F0BB0F07
:1016B00040F4BF2B11F460FF04C06F5F7F4F8F4F6A
:1016C0009F4F089557FD9058440F551F59F05F3FA5
:1016D00071F04795880F97FB991F61F09F3F79F054
:1016E00087950895121613061406551FF2CF4695D6
:1016F000F1DF08C0161617061806991FF1CF869558
:101700007105610508940895E894BB27662777273B
:10171000CB0197F908950E949E0B0C94510B0E94E7
:10172000430B38F00E944A0B20F0952311F00C94E3
:101730003A0B0C94400B11240C94850B0E94620B05
:1017400070F3959FC1F3950F50E0551F629FF00114
:10175000729FBB27F00DB11D639FAA27F00DB11D2D
:10176000AA1F649F6627B00DA11D661F829F2227B6
:10177000B00DA11D621F739FB00DA11D621F839F3D
:10178000A00D611D221F749F3327A00D611D231F13
:10179000849F600D211D822F762F6A2F11249F5761
:1017A00050409AF0F1F088234AF0EE0FFF1FBB1F64
:1017B000661F771F881F91505040A9F79E3F510523
:1017C00080F00C943A0B0C94850B5F3FE4F3983E49
:1017D000D4F3869577956795B795F795E7959F5FCD
:1017E000C1F7FE2B880F911D9695879597F908955F
:1017F000CF93DF938230910510F482E090E0E09186
:101800002E02F0912F0220E030E0C0E0D0E03097CF
:1018100011F14081518148175907C0F04817590705
:1018200061F482819381209719F09B838A832BC076
:1018300090932F0280932E0226C02115310519F0B6
:101840004217530718F49A01BE01DF01EF0102802D
:10185000F381E02DDCCF2115310509F1281B390B6F
:101860002430310590F412968D919C911397611557
:10187000710521F0FB019383828304C090932F02B2
:1018800080932E02FD01329644C0FD01E20FF31F4A
:1018900081939193225031092D933C933AC020912A
:1018A0002C0230912D02232B41F420910201309122
:1018B000030130932D0220932C02209100013091DE
:1018C00001012115310541F42DB73EB740910401C6
:1018D00050910501241B350BE0912C02F0912D0253
:1018E000E217F307A0F42E1B3F0B2817390778F0F7
:1018F000AC014E5F5F4F2417350748F04E0F5F1F56
:1019000050932D0240932C028193919302C0E0E00A
:10191000F0E0CF01DF91CF9108950F931F93CF9304
:10192000DF93009709F48CC0FC0132971382128276
:1019300000912E0210912F020115110581F42081D2
:101940003181820F931F20912C0230912D02281794
:10195000390779F5F0932D02E0932C0271C0D8017C
:1019600040E050E0AE17BF0750F412962D913C9125
:101970001397AD012115310509F1D901F3CF9D016F
:10198000DA013383228360817181860F971F82176A
:10199000930769F4EC0128813981260F371F2E5FE8
:1019A0003F4F318320838A819B8193838283452BA0
:1019B00029F4F0932F02E0932E0242C01396FC9379
:1019C000EE931297ED01499159919E01240F351F15
:1019D000E217F30771F480819181840F951F0296BD
:1019E00011969C938E938281938113969C938E93F0
:1019F0001297E0E0F0E0D80112968D919C91139738
:101A0000009719F0F8018C01F6CF8D919C91980107
:101A10002E5F3F4F820F931F20912C0230912D0299
:101A20002817390769F4309729F410922F02109281
:101A30002E0202C01382128210932D0200932C02F8
:101A4000DF91CF911F910F91089581E090E0F8947C
:101A50000C94500DFC0188279927E894219120329D
:101A6000E9F3293010F02E30C8F32B3241F02D323B
:101A700039F4689404C00E94480D820F911D219191
:101A800020532A30C0F31EF4909581959F4F0895FE
:101A90007AE0979F902D879F802D910D11240895B6
:101AA00010E0C0EBD0E004C0FE010E94260A21969F
:0A1AB000C13BD107C9F7F894FFCF3E
:101ABA0000003002800000000000AE027F024502F2
:101ACA0031022202210200000000E802F601F002BF
:061ADA000803BF02D9025F
:00000001FF
